:10000000000000308A001128233084008313000888
:10001000031910285230F700F70B0C28800B0A2820
:10002000080003081F3983005030F7002030840097
:1000300083138001840A6400F70B1928F101F2018F
:10004000F301F401F501F601F801F901FA01FB01F0
:10005000FC01FD01FE015030F700A0308400831345
:100060008001840A6400F70B30286030F7001030FC
:10007000840083178001840A6400F70B3A288313F5
:100080005530F7009030840083178001840A6400A3
:10009000F70B4528831383160317EE01831383128E
:1000A0000313A001840183131F3083050130A000D6
:1000B000A20083161F149F141F159F1107309C0068
:1000C000FE308600F73088008312860188012208FE
:1000D000033C031C8D280130A0002008023C031CB7
:1000E0007B280614C830A30004200610C830A300E3
:1000F0000420A00A6D280130A1002108033C031C44
:100100008B288815C830A30004208811C830A300AC
:0C0110000420A10A7D28A20A67288D287F
:02400E00393740
:00000001FF
;PIC16F877A
;CRC=2567  CREATED="01-nov-17 20:54"
