:1000000000308A0004280000840183131F30830518
:1000100083161F149F141F159F1107309C00FF307B
:100020008312A000A10108108810081188113F3028
:10003000831687008312A000F03083168800831295
:100040002108FB3E03184F28053E5128871E2A2809
:100050000130A10008140815071D30280330A10045
:10006000071C34280430A1004F2808148814871C6A
:100070003B280430A1004F2808158814871D42280A
:100080000230A1004F28081488150719A101071E86
:100090004B280130A100871C4F280430A1002028E4
:1000A00063000A108A100A11820726282A2843288A
:0400B00035283C288B
:02400E00713F00
:00000001FF
;PIC16F877A
;CRC=66C0  CREATED="29-nov-17 18:14"
