:1000000000308A0004280000840183131F30830518
:1000100083161F149F141F159F1107309C00FF307B
:100020008312A0000730831687008312A000F830E7
:10003000831688008312A101081088100811210876
:1000400003192928013A03193028033A03193728DC
:100050003D280814071C2F2808100130A1003D2856
:100060008814871C362888100230A1003D28081506
:0E007000071D3C280811A1013D281F28630030
:02400E00713F00
:00000001FF
;PIC16F877A
;CRC=3E6F  CREATED="29-nov-17 15:48"
