:1000000000308A0019280000233084008313000880
:10001000031918280130F800F701F70B0D28F80B29
:100020000C284A30F700F70B13281628800B0A28F3
:10003000080003081F3983005730F7002030840080
:1000400083138001840AF70B2128F801F901FA01D2
:10005000FB01FC01FD01FE015030F700A0308400DF
:1000600083138001840AF70B31286030F7001030C9
:10007000840083178001840AF70B3A2883136030C9
:10008000F7009030840083178001840AF70B44281E
:100090008313A001840183131F30830583161F146B
:1000A0009F141F159F1107309C00FF308312A00082
:1000B0000130831687008312A000F8308316880071
:1000C0008312A10108108810081107186928081464
:1000D0006528081088140430A200FA30A300042018
:1000E000A20B6D28881008150430A200FA30A30076
:0E00F0000420A20B76280811A10A65286300DF
:02400E00713F00
:00000001FF
;PIC16F877A
;CRC=8E7D  CREATED="29-nov-17 14:37"
