:1000000000308A001B28000022308400831300087F
:10001000031918280130F800F701F70B0D28F80B29
:100020000C284A30F700F70B13281628800B0A28F3
:100030008A110A12782803081F3983005730F70005
:100040002030840083138001840AF70B2328F801F1
:10005000F901FA01FB01FC01FD01FE015030F7003E
:10006000A030840083138001840AF70B33286030AA
:10007000F7001030840083178001840AF70B3C28B6
:1000800083136030F7009030840083178001840A66
:10009000F70B46288313A001840183131F308305C7
:1000A00083161F149F141F159F1107309C00FF30EB
:1000B0008312A0000730831687008312A000F0305F
:1000C00083168800831208108810081188110814FC
:1000D00007186C2888106828871871280810881459
:1000E0006C28881008151830A100FA30A2000428E6
:1000F000A10B7528081107197F2888157B288811FE
:04010000632863000D
:02400E00713F00
:00000001FF
;PIC16F877A
;CRC=0A4C  CREATED="29-nov-17 12:17"
