:1000000000308A0004280000840183131F30830518
:1000100083161F149F141F159F1107309C00FF307B
:100020008312A0000330A100081008118810881165
:100030000F30831687008312A000F03083168800EB
:1000400083122108FB3E03185428053E5628081049
:100050000811881088110718A1015428871C33281B
:1000600008140430A100871837280130A100542853
:1000700007198814871D3E280230A100542808154E
:10008000871C44280811A101542808108810071D56
:100090004C280815881547288718502888114C289F
:1000A00008110330A1005428212863000A108A1087
:0E00B0000A1182072E283F28452827283828C5
:02400E00713F00
:00000001FF
;PIC16F877A
;CRC=7E78  CREATED="29-nov-17 18:52"
