:1000000000308A00192800002B3084008313000878
:10001000031918280130F800F701F70B0D28F80B29
:100020000C284A30F700F70B13281628800B0A28F3
:10003000080003081F3983005730F7002030840080
:1000400083138001840AF70B2128F801F901FA01D2
:10005000FB01FC01FD01FE015030F700A0308400DF
:1000600083138001840AF70B31286030F7001030C9
:10007000840083178001840AF70B3A2883136030C9
:10008000F7009030840083178001840AF70B44281E
:100090008313A001840183131F30830583161F146B
:1000A0009F141F159F1107309C00BF308312A100C1
:1000B0000630A2005B30A3004F30A4006630A500DC
:1000C0006D30A6007D30A7000730A800FF30A900E2
:1000D0006F30AA0000308316860088008312210842
:1000E0008800023086006430AB00042021088800BC
:1000F000013086006430AB00042021088800023003
:1001000086006430AB00042022088800013086009D
:100110006430AB000420210888000230860064307F
:10012000AB00042023088800013086006430AB0057
:10013000042021088800023086006430AB000420CF
:1001400024088800013086006430AB0004202108B8
:100150008800023086006430AB0004202508880047
:10016000013086006430AB00042021088800023092
:1001700086006430AB000420260888000130860029
:100180006430AB000420210888000230860064300F
:10019000AB00042027088800013086006430AB00E3
:1001A000042021088800023086006430AB0004205F
:1001B00028088800013086006430AB000420210844
:1001C0008800023086006430AB00042029088800D3
:0E01D000013086006430AB0004206F2863000D
:02400E00313F40
:00000001FF
;PIC16F877A
;CRC=FDCD  CREATED="29-nov-17 10:59"
