:10000000000000308A001928223084008313000881
:10001000031918280130F800F701F70B0D28F80B29
:100020000C284A30F700F70B13281628800B0A28F3
:100030000800840183131F30830507309F000030C0
:1000400066006F3086000230A100FA30A200042062
:10005000A10B2528FF3086000230A100FA30A20053
:100060000420A10B2E28073086000230A100FA30B0
:10007000A2000420A10B37287D3086000230A100A9
:10008000FA30A2000420A10B40286D308600023017
:10009000A100FA30A2000420A10B49286630860096
:1000A0000230A100FA30A2000420A10B52284F30E8
:1000B00086000230A100FA30A2000420A10B5B28C8
:1000C0005B3086000230A100FA30A2000420A10BB0
:1000D0006428063086000230A100FA30A200042015
:1000E000A10B6D28BF3086000230A100FA30A200BB
:0A00F0000420A10B762821287C28AB
:02400E00093F68
:00000001FF
;PIC16F628A
;CRC=44E8  CREATED="18-out-17 20:14"
