:10000000000000308A0019282C3084008313000877
:10001000031918280130F800F701F70B0D28F80B29
:100020000C284A30F700F70B13281628800B0A28F3
:100030000800840183131F30830507309F00BF3001
:10004000A1000630A2005B30A3004F30A400663050
:10005000A5006D30A6007D30A7000730A800FF3056
:10006000A9006F30AA0000306600650021088600F4
:10007000013085000230AB00FA30AC000420AB0B3D
:100080003C2802308500210886000230AB00FA309F
:10009000AC000420AB0B4728220886000130850005
:1000A0000230AB00FA30AC000420AB0B5228023017
:1000B0008500210886000230AB00FA30AC00042035
:1000C000AB0B5D2823088600013085000230AB00B1
:1000D000FA30AC000420AB0B682802308500210800
:1000E00086000230AB00FA30AC000420AB0B732862
:1000F00024088600013085000230AB00FA30AC00E5
:100100000420AB0B7E2802308500210886000230D7
:10011000AB00FA30AC000420AB0B89282508860020
:10012000013085000230AB00FA30AC000420AB0B8C
:10013000942802308500210886000230AB00FA3096
:10014000AC000420AB0B9F282608860001308500F8
:100150000230AB00FA30AC000420AB0BAA2802300E
:100160008500210886000230AB00FA30AC00042084
:10017000AB0BB52827088600013085000230AB00A4
:10018000FA30AC000420AB0BC028023085002108F7
:1001900086000230AB00FA30AC000420AB0BCB2859
:1001A00028088600013085000230AB00FA30AC0030
:1001B0000420AB0BD62802308500210886000230CF
:1001C000AB00FA30AC000420AB0BE1282908860014
:1001D000013085000230AB00FA30AC000420AB0BDC
:1001E000EC2802308500210886000230AB00FA308E
:1001F000AC000420AB0BF7282A08860001308500EC
:100200000230AB00FA30AC000420AB0B0229023004
:100210008500210886000230AB00FA30AC000420D3
:10022000AB0B0D2921088600013085000230AB00A0
:10023000FA30AC000420AB0B1829023085002208EC
:1002400086000230AB00FA30AC000420AB0B23294F
:1002500022088600013085000230AB00FA30AC0085
:100260000420AB0B2E2902308500220886000230C4
:10027000AB00FA30AC000420AB0B39292308860010
:10028000013085000230AB00FA30AC000420AB0B2B
:10029000442902308500220886000230AB00FA3083
:1002A000AC000420AB0B4F292408860001308500E8
:1002B0000230AB00FA30AC000420AB0B5A290230FC
:1002C0008500220886000230AB00FA30AC00042022
:1002D000AB0B652925088600013085000230AB0094
:1002E000FA30AC000420AB0B7029023085002208E4
:1002F00086000230AB00FA30AC000420AB0B7B2947
:1003000026088600013085000230AB00FA30AC00D0
:100310000420AB0B862902308500220886000230BB
:10032000AB00FA30AC000420AB0B91292708860003
:10033000013085000230AB00FA30AC000420AB0B7A
:100340009C2902308500220886000230AB00FA307A
:10035000AC000420AB0BA7292808860001308500DB
:100360000230AB00FA30AC000420AB0BB2290230F3
:100370008500220886000230AB00FA30AC00042071
:10038000AB0BBD2929088600013085000230AB0087
:10039000FA30AC000420AB0BC829023085002208DB
:1003A00086000230AB00FA30AC000420AB0BD3293E
:1003B0002A088600013085000230AB00FA30AC001C
:1003C0000420AB0BDE2902308500220886000230B3
:1003D000AB00FA30AC000420AB0BE9292108860001
:1003E000013085000230AB00FA30AC000420AB0BCA
:1003F000F42902308500230886000230AB00FA3071
:0C040000AC000420AB0BFF293628052AB5
:02400E00093F68
:00000001FF
;PIC16F628A
;CRC=E53D  CREATED="18-out-17 21:17"
