:1000000000308A0019280000233084008313000880
:10001000031918280130F800F701F70B0D28F80B29
:100020000C284A30F700F70B13281628800B0A28F3
:100030000800840183131F30830507309F00FC30C4
:100040006600A101061086102108013C031C3A2815
:1000500006140230A200FA30A3000420A20B2B28C1
:1000600006100230A200FA30A3000420A20B3328AD
:10007000A10A2428A1012108023C031C512886144E
:100080000230A200FA30A3000420A20B42288610FE
:100090000230A200FA30A3000420A20B4A28A10AD1
:0800A0003B28A10122286300A6
:02400E00613F10
:00000001FF
;PIC16F628A
;CRC=42B2  CREATED="29-nov-17 09:38"
