:1000000000308A001928000024308400831300087F
:10001000031918280130F800F701F70B0D28F80B29
:100020000C284A30F700F70B13281628800B0A28F3
:100030000800840183131F30830583161F149F1447
:100040001F159F1107309C00FE3086008800831228
:10005000A101A2012208023C031C6028061008101E
:100060002108013C031C462806140230A300FA3084
:10007000A4000420A30B372806100230A300FA3096
:10008000A4000420A30B3F28A10A3028A1012108C5
:10009000023C031C5D2808140230A300FA30A400BF
:1000A0000420A30B4E2808100230A300FA30A4004D
:1000B0000420A30B5628A10A4728A101A20A2A2836
:0200C0006300DB
:02400E00713F00
:00000001FF
;PIC16F877A
;CRC=E33C  CREATED="29-nov-17 10:02"
