:10000000000000308A001928223084008313000881
:10001000031918280130F800F701F70B0D28F80B29
:100020000C284A30F700F70B13281628800B0A28F3
:100030003828840183131F30830507309F00003068
:100040006500660086100611061286110614051D4D
:10005000272806108614851C2B2886100615051CDB
:100060002F28061186151430A100FA30A2000428AA
:10007000A10B352886110616851D3C280612262858
:02008000402816
:02400E00093F68
:00000001FF
;PIC16F628A
;CRC=4354  CREATED="08-nov-17 21:07"
