:1000000000308A0019280000223084008313000881
:10001000031918280130F800F701F70B0D28F80B29
:100020000C284A30F700F70B13281628800B0A28F3
:100030003928840183131F30830507309F00FF3068
:10004000650000306600861006110612861106143F
:10005000051D282806108614851C2C2886100615D8
:10006000051C3028061186151430A100FA30A200B4
:100070000428A10B362886110616851D3D28061278
:0400800027286300CA
:02400E00613F10
:00000001FF
;PIC16F628A
;CRC=C774  CREATED="22-nov-17 21:13"
