:1000000000308A001B28000022308400831300087F
:10001000031918280130F800F701F70B0D28F80B29
:100020000C284A30F700F70B13281628800B0A28F3
:100030008A110A124B28840183131F30830583160B
:100040001F149F141F159F1107309C00FF3083124F
:10005000A0000F30831687008312A000E0308316C3
:100060008800831207193A2808148810081108120A
:100070008811322887183F28081088143A28071852
:100080004428881008153F28081188151430A1004D
:10009000FA30A2000428A10B482888118719522899
:0A00A00008164E28081232286300EB
:02400E00713F00
:00000001FF
;PIC16F877A
;CRC=3651  CREATED="29-nov-17 13:59"
