:10000000000000308A001928223084008313000881
:10001000031918280130F800F701F70B0D28F80B29
:100020000C284A30F700F70B13281628800B0A28F3
:100030000800840183131F30830507309F000030C0
:100040006600061486140615861506128612061317
:1000500086130230A100FA30A2000420A10B2B2845
:1000600006108610061186110616861606178617C4
:100070000230A100FA30A2000420A10B3A28212866
:02008000402816
:02400E00093F68
:00000001FF
;PIC16F628A
;CRC=1828  CREATED="11-out-17 21:20"
